:1000000021C04DC03AC039C038C037C036C035C035
:1000100034C033C032C026C130C02FC02EC02DC066
:100020002CC02BC02AC029C028C0F6C0FAC08EC080
:100030008DC08CC0A5C0A4C0A3C0A2C0BAC0B9C0A6
:10004000B8C0B7C011241FBECFE5D2E0DEBFCDBF20
:1000500010E0A0E6B0E0E4E2F4E002C005900D920A
:10006000A236B107D9F710E0A2E6B0E001C01D92B8
:10007000A336B107E1F7B8D1D3C1C2CF80916000F8
:10008000882311F481E005C080916000813021F463
:1000900082E08093600008951092600008951F929E
:1000A0000F920FB60F9211242F933F934F935F93AC
:1000B0006F937F938F939F93AF93BF93EF93FF9330
:1000C000DDDFFF91EF91BF91AF919F918F917F9174
:1000D0006F915F914F913F912F910F900FBE0F90B5
:1000E0001F9018955D9BFECF8CB908955F9BFECF46
:1000F0008CB1089590BD89B988E98AB986E880BD38
:100100000895009721F480EE85BB8FEF05C001971D
:1001100029F480EF85BB8EEF8BBB08958EEF8BBBF0
:1001200080EE85BB0895982F80916000882329F088
:1001300080916000813009F05DC0E92FF0E0ED3082
:10014000F10508F08EC0EB5EFF4F0994292F215076
:1001500080916000882351F480EE90E002C0880F07
:10016000991F2A95E2F785BB8FEF77C080916000D9
:10017000813009F076C080EF85BB8EEF90E013C030
:10018000292F255080916000882321F415BA8FE72C
:1001900090E01BC080916000813009F062C080EF68
:1001A00085BB80EE90E002C0880F991F2A95E2F788
:1001B00054C0292F29505D9BFECF9CB980916000CF
:1001C000882349F415BA87E090E002C09595879599
:1001D0002A95E2F742C080916000813009F041C069
:1001E00080E790E002C0959587952A95E2F785BB58
:1001F0001BBA08959630D1F0973038F4923089F0D8
:100200009430A1F0992341F008959A3021F19C3067
:1002100031F1983031F50AC08FEF8BBB80EF85BB91
:1002200008958091600090E06CDF0895892F869595
:10023000815020EE30E0082E02C0220F331F0A94B6
:10024000E2F725BB2EEF30E002C0220F331F8A9564
:10025000E2F72BBB089515BA80E68BBB089515BA5B
:100260001BBA08951F920F920FB60F9211242F936D
:100270003F934F935F936F937F938F939F93AF932E
:10028000BF93EF93FF939CB1913339F0923339F0E0
:10029000903341F41092600005C081E001C082E01B
:1002A00080936000892F3FDFFF91EF91BF91AF9165
:1002B0009F918F917F916F915F914F913F912F917E
:1002C0000F900FBE0F901F9018952AEF30E004C0DA
:1002D000F9013197F1F701970097D1F70895EF925F
:1002E000FF920F931F9310916000812F90E009DF20
:1002F00082E390E0EADF90E7E92E8FE7F82E4BC02B
:1003000000916000011739F0009160008091600059
:1003100090E0F7DE3CC080916000882389F485B3CB
:10032000882329F48BB38F3F11F4FBBA30C085B317
:10033000882319F48BB3869529C085B3880F12C022
:1003400080916000813081F48BB3882329F485B3D8
:10035000803F11F4E5BA1BC08BB3882359F485B3F1
:100360008695807F85BB13C085B3882331F085B324
:10037000880F85BB8BB3880F09C0DF9B02C0DF9855
:1003800006C09BB38BB3880F969589238BBB82E302
:1003900090E09BDF102F8BB3882309F0B1CF85B39A
:1003A000882309F0ADCF109262000FEF10EF0FC05D
:1003B00084E690E08ADF0BBB15BB82E390E085DF2B
:1003C0001BBA15BA809162008F5F809362008091A2
:1003D0006200843068F38FEF8BBB80EF85BB1F9189
:1003E0000F91FF90EF90089510BC8CE089B988E9D7
:1003F0008AB986E880BD929A85B7826085BF8BB73F
:1004000080648BBF78948FEF8ABB8BBB84B3806F83
:1004100084BB80EF85BB979A62DF8799FECFFCCFC4
:04042000F894FFCF7E
:020424000200D4
:00000001FF
